S00D0000696D6167652E7372656314
S3150000080000000420BD0C0000439C00003D9C00003D
S31500000810490D0000490D0000490D000000000000D0
S31500000820000000000000000000000000A16B0000B6
S31500000830490D000000000000716C0000D56C00003E
S31500000840610D0000650D0000690D00006D0D0000D2
S31500000850710D0000750D0000790D00007D0D000082
S31500000860810D0000850D0000890D00008D0D000032
S31500000870910D0000950D0000990D00009D0D0000E2
S31500000880A10D0000490D0000490D0000490D0000B2
S31500000890A92E0000B72E0000C52E0000D32E0000A2
S315000008A0E12E0000EF2E0000FD2E00000B2F0000B1
S315000008B0C50D0000C90D0000CD0D0000D10D0000D2
S315000008C0D50D0000D90D0000DD0D0000E10D000082
S315000008D0E50D0000E90D0000ED0D0000F10D000032
S315000008E0F50D0000F90D0000FD0D0000010E0000E1
S315000008F0050E0000090E00000D0E0000110E00008E
S31500000900150E0000190E0000490D0000490D0000EB
S31500000910490D0000490D0000490D0000490D000079
S315000009205DBE0000490D0000490D0000490D0000A4
S31500000930490D0000F9AA0000490D0000490D00000C
S31500000940490D0000490D0000490D0000490D000049
S31500000950490D0000490D0000490D0000490D000039
S31500000960490D0000490D0000490D00001D0E000054
S31500000970210E0000250E0000290E00002D0E00009D
S31500000980310E0000350E0000390E0000490D000042
S31500000990490D0000490D0000490D0000490D0000F9
S315000009A0490D0000490D0000490D0000490D0000E9
S315000009B0490D00000DAB0000490D0000490D000077
S315000009C0490D00003D0E0000490D0000490D0000D4
S315000009D0490D0000490D0000B9AA0000CDAA00008B
S315000009E0490D0000D1AA0000E5AA0000490D00004B
S315000009F0490D0000490D0000410E0000450E0000A3
S31500000A00490D0000490D0000490D0000490D000088
S31500000A10490D0000490D0000619C000031A900004D
S31500000A20292A0000490D0000490D0000490D00006B
S31500000A30490D0000490D0000490D0000490D000058
S31500000A40490D0000490D0000490E00004D0E000042
S31500000A50490D0000510E0000550E0000490D000022
S31500000A6039B60000590E00005D0E0000610E000050
S31500000A70650E0000690E00006D0E0000490D0000B5
S31500000A80490D0000490D0000490D0000490D000008
S31500000A90490D0000490D0000490D0000490D0000F8
S31500000AA0490D0000490D0000490D0000490D0000E8
S31500000AB0490D0000490D0000490D0000490D0000D8
S31500000AC0490D0000490D0000490D0000490D0000C8
S31500000AD0490D0000490D0000490D0000490D0000B8
S31500000AE0490D0000490D0000490D0000490D0000A8
S31500000AF0490D0000490D0000490D0000490D000098
S31500000B00490D0000490D0000490D0000490D000087
S31500000B10490D0000490D0000490D0000490D000077
S31500000B20490D0000490D0000490D0000490D000067
S31500000B30490D0000490D0000490D0000490D000057
S31500000B40490D0000490D0000490D0000490D000047
S31500000B50490D0000490D0000490D0000490D000037
S31500000B60710E0000750E0000790E000001D5000020
S31500000B70490D0000490D0000490D0000490D000017
S31500000B80490D0000490D0000810E0000850E000091
S31500000B90890E00008D0E0000490D0000490D000071
S31500000BA0910E0000950E00002D9C00002D9C00006B
S31500000BB02D9C00002D9C00002D9C00002D9C00000B
S31500000BC02D9C00002D9C00002D9C00002D9C0000FB
S31500000BD02D9C00002D9C00002D9C00002D9C0000EB
S31500000BE02D9C00002D9C00002D9C00002D9C0000DB
S31500000BF02D9C00002D9C00002D9C0000FFFFFFFF98
S31500000C0010B5054C237833B9044B13B10448AFF340
S31500000C1000800123237010BD008200200000000028
S31500000C202011020008B5034B1BB103490348AFF37B
S31500000C30008008BD00000000048200202011020090
S31500000C40A3F5803A704700BF174B002B08BF134B24
S31500000C509D46FFF7F5FF00218B460F461348144AC1
S31500000C60121A17F0E7FD0E4B002B00D098470D4BDC
S31500000C70002B00D098470020002104000D000D48ED
S31500000C80002802D00C48AFF3008017F065FD200065
S31500000C90290001F047FC17F08BFA00BF000008009E
S31500000CA00000000000000000000004200082002078
S31500000CB03C450220000000000000000072B6164805
S31500000CC0164901600A6882F3088815488047154965
S31500000CD0154A164B9A42BEBF51F8040B42F8040B54
S31500000CE0F8E7134A134B9A42BEBF51F8040B42F879
S31500000CF0040BF8E7104B00209A42BCBF42F8040BE5
S31500000D00FAE70E490E4A00209142BCBF41F8040B97
S31500000D10FAE762B60B48804708ED00E000080000DD
S31500000D20B12A00008C12020000800020F48100200D
S31500000D3000000020000000203C0800200082002067
S31500000D403C450220490C000008F070BF524800479D
S31500000D505248004752480047524800475248004709
S31500000D6052480047524800475248004752480047F9
S31500000D7052480047524800475248004752480047E9
S31500000D8052480047524800475248004752480047D9
S31500000D9052480047524800475248004752480047C9
S31500000DA052480047524800475248004752480047B9
S31500000DB052480047524800475248004752480047A9
S31500000DC05248004752480047524800475248004799
S31500000DD05248004752480047524800475248004789
S31500000DE05248004752480047524800475248004779
S31500000DF05248004752480047524800475248004769
S31500000E005248004752480047524800475248004758
S31500000E105248004752480047524800475248004748
S31500000E205248004752480047524800475248004738
S31500000E305248004752480047524800475248004728
S31500000E405248004752480047524800475248004718
S31500000E505248004752480047524800475248004708
S31500000E6052480047524800475248004752480047F8
S31500000E7052480047524800475248004752480047E8
S31500000E8052480047524800475248004752480047D8
S31500000E905248004752480047439C00003D9C0000D2
S31500000EA0A16B0000716C0000D56C0000F5440000D9
S31500000EB02D450000654500009D450000D545000014
S31500000EC00D460000454600007D460000B546000080
S31500000ED0ED460000254700005D47000095470000ED
S31500000EE0CD470000054800003D480000490D0000C0
S31500000EF0DD4F0000FD4F00001D5000003D5000007A
S31500000F005D5000007D5000009D500000BD50000067
S31500000F10DD500000FD5000001D5100003D51000055
S31500000F20514D00005D4D0000694D0000754D0000FB
S31500000F30814D00008D4D0000B94D0000ED4D0000C3
S31500000F40214E0000554E0000894E0000BD4E0000A7
S31500000F50490D0000490D0000490D0000490D000033
S31500000F60490D0000490D0000490D0000490D000023
S31500000F70490D0000490D0000490D0000490D000013
S31500000F80490D0000490D0000490D0000490D000003
S31500000F90490D0000494A0000490D00006D1A010084
S31500000FA08D1A0100D1490000E54900000D4A0000F4
S31500000FB0214A0000F9490000354A0000490D0000A9
S31500000FC0490D000015540000490D0000490D0000B0
S31500000FD0490D0000490D0000490D0000490D0000B3
S31500000FE0490D000081F0004102E000BF83F000439C
S31500000FF030B54FEA41044FEA430594EA050F08BFAE
S3150000100090EA020F1FBF54EA000C55EA020C7FEA71
S31500001010645C7FEA655C00F0E2804FEA5454D4EBEE
S315000010205555B8BF6D420CDD2C4480EA020281EAB8
S31500001030030382EA000083EA010180EA020281EAF0
S315000010400303362D88BF30BD11F0004F4FEA013142
S315000010504FF4801C4CEA113102D0404261EB410151
S3150000106013F0004F4FEA03334CEA133302D05242D7
S3150000107063EB430394EA050F00F0A780A4F1010493
S31500001080D5F1200E0DDB02FA0EFC22FA05F28018CD
S3150000109041F1000103FA0EF2801843FA05F35941B3
S315000010A00EE0A5F120050EF1200E012A03FA0EFC32
S315000010B028BF4CF0020C43FA05F3C01851EBE3715C
S315000010C001F0004507D54FF0000EDCF1000C7EEB79
S315000010D000006EEB0101B1F5801F1BD3B1F5001FB7
S315000010E00CD349085FEA30004FEA3C0C04F10104D6
S315000010F04FEA445212F5800F80F09A80BCF1004FFF
S3150000110008BF5FEA500C50F1000041EB045141EA80
S31500001110050130BD5FEA4C0C404141EB0101013C49
S3150000112028BFB1F5801FE9D291F0000F04BF014638
S315000011300020B1FA81F308BF2033A3F10B03B3F10A
S3150000114020020CDA0C3208DD02F1140CC2F10C029A
S3150000115001FA0CF021FA02F10CE002F11402D8BFF8
S31500001160C2F1200C01FA02F120FA0CFCDCBF41EAC4
S315000011700C019040E41AA2BF01EB0451294330BD93
S315000011806FEA04041F3C1CDA0C340EDC04F1140470
S31500001190C4F1200220FA04F001FA02F340EA030047
S315000011A021FA04F345EA030130BDC4F10C04C4F18D
S315000011B0200220FA02F001FA04F340EA030029466D
S315000011C030BD21FA04F0294630BD94F0000F83F4B7
S315000011D0801306BF81F480110134013D4EE77FEA9A
S315000011E0645C18BF7FEA655C29D094EA050F08BFE6
S315000011F090EA020F05D054EA000C04BF19461046C7
S3150000120030BD91EA030F1EBF0021002030BD5FEA0A
S31500001210545C05D14000494128BF41F0004130BD32
S3150000122014F580043CBF01F5801130BD01F0004586
S3150000123045F0FE4141F470014FF0000030BD7FEAF9
S31500001240645C1ABF194610467FEA655C1CBF0B46F4
S31500001250024650EA013406BF52EA033591EA030F0B
S3150000126041F4002130BD00BF90F0000F04BF002103
S31500001270704730B54FF4806404F132044FF0000536
S315000012804FF0000150E700BF90F0000F04BF0021AF
S31500001290704730B54FF4806404F1320410F0004515
S315000012A048BF40424FF000013EE700BF42004FEA10
S315000012B0E2014FEA31014FEA02701FBF12F07F438D
S315000012C093F07F4F81F06051704732F07F4208BF44
S315000012D0704793F07F4F04BF41F40021704730B54B
S315000012E04FF4607401F0004521F000411CE700BF97
S315000012F050EA010208BF704730B54FF000050AE01A
S3150000130050EA010208BF704730B511F0004502D51A
S31500001310404261EB41014FF4806404F132045FEA1C
S31500001320915C3FF4D8AE4FF003025FEADC0C18BFC5
S3150000133003325FEADC0C18BF033202EBDC02C2F1B7
S31500001340200300FA03FC20FA02F001FA03FE40EA49
S315000013500E0021FA02F11444BDE600BF7BB972B952
S315000013600029BEBF00204FF0004106E008BF00285C
S315000013701CBF6FF000414FF0FF3000F007BAADF12F
S31500001380080C6DE904CE002909DB002B1ADB00F0FE
S315000013909BF8DDF804E0DDE9022304B07047404223
S315000013A061EB4101002B1BDB00F08EF8DDF804E059
S315000013B0DDE9022304B0404261EB4101524263EB96
S315000013C043037047524263EB430300F07DF8DDF8B8
S315000013D004E0DDE9022304B0404261EB41017047BD
S315000013E0524263EB430300F06FF8DDF804E0DDE9F9
S315000013F0022304B0524263EB4303704753B94AB920
S31500001400002908BF00281CBF4FF0FF314FF0FF3006
S3150000141000F0BCB9ADF1080C6DE904CE00F054F84B
S31500001420DDF804E0DDE9022304B07047430803F069
S315000014305533C01A830803F0333300F033301844B1
S3150000144000EB101000F00F3000EB002000EB004026
S31500001450000E704708B502460B4643EC172BB5EE57
S31500001460C07BF1EE10FA03D4BDE8084000F00CB8DA
S31500001470B1EE477B51EC170B00F006F8404261EBEA
S31500001480410108BD000000009FED0B6B41EC170BFE
S315000014909FED0B5B27EE066BBCEEC66BB8EE464BBC
S315000014A0A4EE457BFCEEC77B16EE101A17EE900AEB
S315000014B0704700BFAFF30080000000000000F03D61
S315000014C0000000000000F0412DE9F047089D0446A9
S315000014D08C46002B40F083808A42174647D9B2FAE1
S315000014E082F242B1C2F1200024FA00F09140974006
S315000014F040EA010C94404FEA1748230CBCFBF8F66F
S315000015001FFA87FE08FB16C143EA014306FB0EF1EC
S31500001510994209D9FB1806F1FF3080F019819942EA
S3150000152040F21681023E3B445B1AA4B2B3FBF8F0CC
S3150000153008FB103344EA034400FB0EFEA64509D916
S315000015403C1900F1FF3380F00581A64540F2028187
S3150000155002383C4440EA0640A4EB0E0400261DB1C6
S31500001560D4400023C5E900433146BDE8F08702B9FF
S31500001570FFDEB2FA82F2002A50D1CB1B4FEA174E99
S315000015801FFA87F80126B3FBFEFC210C0EFB1C3369
S3150000159041EA034108FB0CF38B4207D979180CF199
S315000015A0FF3002D28B4200F2E9808446C91AA3B208
S315000015B0B1FBFEF00EFB101143EA014408FB00F8F4
S315000015C0A04507D93C1900F1FF3302D2A04500F22D
S315000015D0D9801846A4EB080440EA0C40BFE78B42CA
S315000015E009D9002D00F0B1800026C5E9000130467A
S315000015F03146BDE8F087B3FA83F6002E4AD18B4216
S3150000160002D3824200F2B880841A61EB0301012002
S315000016108C46002DA8D0C5E9004CA5E7C2F12003F1
S3150000162020FA03F6974001FA02F04FEA174ED94026
S315000016303043030CB1FBFEF61FFA87F80EFB1611BA
S3150000164043EA014306FB08F1994204FA02F409D978
S31500001650FB1806F1FF3C80F08D80994240F28A80AB
S31500001660023E3B445B1A81B2B3FBFEF00EFB103325
S3150000167041EA034100FB08F38B4207D9791800F1D0
S31500001680FF3C73D28B4271D902383944CB1A40EAF7
S31500001690064678E7C6F1200C03FA06F422FA0CF3A4
S315000016A01C4320FA0CF701FA06F34FEA144E21FA0E
S315000016B00CF11F433B0CB1FBFEF91FFA84F80EFB3D
S315000016C0191143EA014109FB08FA8A4502FA06F2B2
S315000016D000FA06F308D9611809F1FF3048D28A45A5
S315000016E046D9A9F102092144A1EB0A01BFB2B1FB17
S315000016F0FEF00EFB101147EA014700FB08F8B8455B
S3150000170007D9E71900F1FF312ED2B8452CD9023896
S31500001710274440EA0940A7EB0807A0FB02894F458A
S31500001720C64649461AD317D05DB1B3EB0E0267EB36
S31500001730010707FA0CFCF2404CEA0202F740C5E941
S31500001740002700263146BDE8F0872E4628460BE7DF
S315000017500646E9E61846FDE64345E5D2B8EB020E35
S3150000176069EB04010138DFE70846D2E760468DE7FA
S315000017708146B9E7664675E730464AE7ACF1020CA2
S31500001780394413E702383C4424E700BF704700BFE2
S3150000179001F0FF01102A2BDB10F0070F08D010F81C
S315000017A0013B013A8B422DD010F0070F42B3F6D120
S315000017B0F0B441EA012141EA014122F007047FF039
S315000017C000070023F0E80256083C85EA010586EA90
S315000017D0010685FA47F5A3FA87F586FA47F6A5FACC
S315000017E087F68EB9EED1F0BC01F0FF0102F00702D8
S315000017F032B110F8013B013A83EA010313B1F8D183
S315000018000020704701387047002D06BF3546033863
S31500001810073815F0010F07D1013015F4807F02BF9C
S31500001820013015F4C03F0130F0BC0138704700BFED
S3150000183010F8012B11F8013B012A28BF9A42F7D074
S31500001840D01A7047034613F8012B002AFBD1181A49
S31500001850013870470022C0E90022826070470022EA
S31500001860C0E90022826070470022C0E9002282603F
S3150000187070470120704703681B6A184703685B6A54
S315000018801847036808681847012A03D0022A03D0BC
S31500001890002070470160FBE70B680360F8E710B5AE
S315000018A004460B6811689847204610BD012A03D0EC
S315000018B0022A03D0002070470160FBE70B68036033
S315000018C0F8E72029F0B511D0D0F8484100232425A7
S315000018D000F118069C4209D005FB03F2B7588F4267
S315000018E002D104321044F0BD0133F3E70020FAE7D9
S315000018F070477047F8B505460F4606460024D5F8EA
S315000019004831A34210D9B369202B02D001342436C2
S31500001910F5E73946F069FFF78BFF0028F6D124205A
S3150000192000FB04500430F8BD0020FCE710B5044667
S315000019304FF4C27114F0ABFB204610BDD0F87C21E9
S31500001940092A38B50CD800F5A67400239A420BD0A4
S3150000195014F8015B8D4205D1563350F8230038BD8B
S3150000196016F0DCFB0133F1E70020F8E710B504467A
S315000019700178094817F0BEFD2378012B05D161785F
S315000019800648BDE8104017F0B5BD23B90448BDE8C8
S31500001990104017F0AFBD10BDC4BC0100E4BC01008F
S315000019A0F8BC010010B50446006810B1882114F097
S315000019B06EFB204610BD38B50568044635B128468D
S315000019C00BF04CFB1421284614F061FB204638BD71
S315000019D038B50568044635B128461FF0BDFBB4216D
S315000019E0284614F054FB204638BD836810B50446DB
S315000019F013B1032201469847204610BD10B5044690
S31500001A0000F59060FFF7F1FF204610BD044B10B5BE
S31500001A10044640F8043BFFF7E8FF204610BD00BF30
S31500001A20A8E50100F8B5304E3578BFF35B8F15F0A9
S31500001A30010557D1304614F02EFB002852D02B4B0F
S31500001A402B4C1A68A71D2560C4F806209A8853F8FF
S31500001A50060F628104F10C025968257184F828503A
S31500001A6003C29868012304F10C0110600222237757
S31500001A70304684F8403084F84C3004F1380384F85A
S31500001A802C20636504F1500384F85020A3654FF4BD
S31500001A9081732576A4F85C30164BC4E90C1540F228
S31500001AA00221A16304F11801E1630A21C4E9183592
S31500001AB0616404F1580304F12801C4E90875A164BE
S31500001AC0A366C4F88854C4F89C54C4F8E055C4F816
S31500001AD0E455C4F8E85514F0EAFA074A20460749DF
S31500001AE014F0CEFA0248F8BDA491002048BC0100CB
S31500001AF0A8910020E925000000800020FD190000C3
S31500001B0013B50446084621604FF0FF3105F012FE7A
S31500001B1001280AD0FFF786FF054B064A06490093BF
S31500001B202D2308F00FF906F0B3FD204602B010BDD4
S31500001B3045BD01000EBD01002CBD0100002313B5FB
S31500001B401A4604461946006805F0FAFA01280AD032
S31500001B50FFF768FF054B064A06490093302308F055
S31500001B60F1F806F095FD204602B010BD74BD0100E7
S31500001B700EBD01002CBD0100F7B504460F460168F5
S31500001B8001A81546FFF7BCFFE3680020D4E901C1B0
S31500001B905B1A9B1085420BD000EB0C0E57F82020E9
S31500001BA00130BEFBF3F603FB16E641F82620F1E70B
S31500001BB0654401A8B5FBF3F203FB12556560FFF718
S31500001BC0BDFF012003B0F0BD70B50D4E3378BFF3F5
S31500001BD05B8F13F0010410D1304614F05CFA60B14B
S31500001BE0084D3046084B85F8544F2B6014F05FFAC9
S31500001BF0064A2846064914F043FA024870BD00BF5B
S31500001C001C82002020820020FCF1010000800020C0
S31500001C10F3180000F0B50E468BB0002104461FF005
S31500001C20C3FA074608F0AAFD00234FF47A72FFF7BD
S31500001C30E5FB3246394605461E481FF0EDFA3046AA
S31500001C401FF002FB08F09AFD4FF47A720023FFF7AB
S31500001C50D5FB064620461FF0C3FA28B1164817F0F2
S31500001C6049FC002007F0CEF808F088FD4FF47A72A0
S31500001C700023FFF7C3FB711B431B821B0F4817F0A2
S31500001C8039FC05229FED0E0A214601A81FF0C8FA6D
S31500001C9001A904A81FF0B0FA04990A4817F02AFC13
S31500001CA004A814F0B1FB019808B114F0EEF90BB0DA
S31500001CB0F0BD00BFA097002094BD0100B5BD010096
S31500001CC09A99993E10C1010000F1080373B50446C4
S31500001CD00D460360E1B10846FFF7B4FD0F2805EB9A
S31500001CE00006019007D9002201A9204614F06AFBDC
S31500001CF0019B2060A36032462946206814F0DDFB74
S31500001D00019B2268002120466360D15402B070BD59
S31500001D10014814F09AFA00BFF7BD010010B5044659
S31500001D20006808B114F0B1F9204610BD2DE9F04362
S31500001D3099B005460E4610AF08AA3846FFF7C4FF0D
S31500001D40119804281ED9109B05386C491844FFF7D2
S31500001D506FFDB0FA80F46409384614F055FB08AA02
S31500001D6094B167493846FFF7AFFF3946284614F065
S31500001D70E5FB012338462B7614F046FB284619B0BE
S31500001D80BDE8F0830024E7E731463846FFF79CFFBD
S31500001D9011980D2808D9109B0E385A491844FFF798
S31500001DA047FDB0FA80F46409384614F02DFB002C88
S31500001DB000F09D80544C00200AF056F84443002C55
S31500001DC002DA524814F044FA4FF00003CDE9023328
S31500001DD004935FD0204614F06DF9064606EB04081E
S31500001DE00296CDF8108024B122460021304616F026
S31500001DF021FD2022CDF80C80DFF8248100210DEB97
S31500001E00020016F017FD4FF4C871D8F8000005F06F
S31500001E1091FC0128044664D1FFF7D6FE8DF83C40BC
S31500001E204FF4A27308AC0E9681463E46CDE90B33BD
S31500001E300FCC0FC694E80F0086E80F000023202081
S31500001E40CDE90533079314F035F9BC4600F1200EB1
S31500001E5004460590CDF81CE0CDF818E0BCE80F006C
S31500001E600FC496E80F0084E80F0005A948460AF05B
S31500001E7023FC0446059808B114F007F964B9244810
S31500001E8017F038FB3A4623492846FFF71DFF012382
S31500001E902B7622E02646A1E70023D8F8000000248E
S31500001EA01A46194605F04CF94FF4A2724B230298D4
S31500001EB0114600971294CDE9104409F047F8109B9B
S31500001EC0384610942B60119B6B60129BAB6002230B
S31500001ED02B76CDE91144FFF721FF02A8FFF71EFF7D
S31500001EE04CE70D4817F006FB3A460C49CCE71C2296
S31500001EF02146284616F09EFC2C763FE721BE0100BF
S31500001F007EC1010097C10100109A010027BE0100A1
S31500001F1058BE01007ABE01009ABE0100B7BE01009C
S31500001F20682B012020292DE9F843054688461446EA
S31500001F30994609D1D0F8800110B90120BDE8F8838F
S31500001F4020491FF075F9F8E703681B6A98470746AA
S31500001F5040B1D5F880010028EFD042461A491FF05B
S31500001F6067F9EAE7D5F848C1BCF1080F09D9D5F8F1
S31500001F7080010028E1D00923424614491FF058F990
S31500001F80DBE74FF0240E0EFB0C5E0FCC0EF10406C1
S31500001F900FC60FCC0FC623683846D5F87C213360B0
S31500001FA00CF10103CEF81880C5F84831AB1883F858
S31500001FB04C8102F15603013245F82390C5F87C2185
S31500001FC0BCE700BFD2BE010017BF010066BF01001B
S31500001FD02E4B10B503608AB000230446C0F8483182
S31500001FE0C0E95F3301A81FF0ABF801AA284B7221A4
S31500001FF02046FFF797FF01A81FF0EEF801AA254B30
S3150000200006212046FFF78EFF01A81FF0BDF801AAA2
S31500002010214B16212046FFF785FF01A81FF0D0F8B7
S3150000202001AA1E4B31212046FFF77CFF01A81FF0B5
S3150000203017F901AA1A4B03212046FFF773FF01A8DF
S315000020401FF0AAF801AA174B04212046FFF76AFFE2
S3150000205001A81FF071F801AA134B0E212046FFF7C5
S3150000206061FF01A81FF0CCF801AA104B28212046D9
S31500002070FFF758FF01A81FF0ABF80D4B01AA092185
S315000020802046FFF74FFF20460AB010BD38C10100B9
S31500002090252E25201D2E2520492E25201D2F2520C5
S315000020A06F2F252003302520212E2520C52E252003
S315000020B0A130252013B50B4602466C46D0E9000137
S315000020C084E8030093E8030082E8030094E8030031
S315000020D083E8030002B010BD2DE9F84307468846A1
S315000020E01646154604464FF0000944451AD02946BF
S315000020F02046C5F808901035FFF7DCFFA36855F8B1
S31500002100082C2046103444F8082C45F8083C55F8AD
S31500002110042C54F8043C44F8042C45F8043CFFF71E
S3150000212064FCE2E7E01B3044BDE8F883F0B5B24E4C
S31500002130ADF5037D0121002008F0BAF93378AF4CE4
S31500002140BFF35B8F13F001050ED1304613F0A3FFEA
S3150000215050B1AB4B3046E560236013F0A8FFA94AA7
S31500002160A949204613F08CFFA84B0222A84D1AA9B4
S315000021701A9321A8A74B2C601D93A74B1C930023F1
S315000021802393FFF781FB1D9B21A8A44924931C9B45
S315000021902393FFF78FFF239B21A8E268E360249B2C
S315000021A02392226923612492FFF71FFC1AA8FFF7E6
S315000021B01CFC286808F0DCF84FF4FA71286808F06F
S315000021C0BFF850B9FFF72EFC954B964A96490093F7
S315000021D0862307F0B7FD06F05BFA002306A99348AD
S315000021E00893CDE9063307F0DDFE044628B990488A
S315000021F017F080F9204606F005FE069B1A689D1822
S315000022009B58EB1A1A88042A40F26F81998811B1FB
S315000022106958032906D00322864817F06BF9002077
S3150000222006F0F0FD844B21A8002405AF0593FFF7C7
S31500002230CFFEB42013F03EFF4FF48013294621AAA7
S31500002240009306467D4B0197CDE902441EF08CFFB4
S315000022501A947B4C2568266035B128461EF07CFF13
S31500002260B421284613F013FF1AA8764DFFF7B0FBEA
S31500002270882013F01FFF88220021064616F0DAFA9E
S31500002280002328681A932E6010B1882113F0FFFEF0
S315000022901AA8FFF787FB20681EF0C6FF28B16A4818
S315000022A017F028F9002006F0ADFD002128681EF081
S315000022B077FF064628B9654817F01CF9304606F040
S315000022C0A1FD002309A962480B93CDE9093307F064
S315000022D069FE064628B95F4817F00CF9304606F045
S315000022E091FDDDE90923A3F5F343603B934205D055
S315000022F0594817F0FFF8002006F084FD00212068F9
S315000023001EF052FF00B14068DDE90912521A16F0BC
S3150000231069FA29682068FFF77DFC4FF47A52022398
S315000023204E4913A8CDE90C2332230CAA0E9396230B
S31500002330009304230AF076FD142013F0BBFE43F647
S31500002340F04104460AF04EFE00231A93444B1D68E2
S315000023501C601C4635B128460AF080FE142128462A
S3150000236013F095FE1AA8FFF726FB3E4A216813A82C
S315000023700AF0E0FD40F2CF3006F0B2FAFFF724FC97
S3150000238001210AF015FCFFF71FFC01210AF0F8FBFA
S31500002390002008F04BFE044628B9334817F0AAF887
S315000023A0204606F02FFD0A2008F09AFE044628B9BA
S315000023B02E4817F09FF8204606F024FD1AA808F0CC
S315000023C02BFF9DF88040002C00F091801A99284838
S315000023D017F090F89DF880302BB100231AA88DF8DD
S315000023E0803014F011F8234B0025234E10201A9349
S315000023F0224B129544E000BF789100207C9100208A
S3150000240008E60100008000200D1A00006D1900008A
S31500002410642B012083180000891800008091002099
S31500002420BEBF0100A9BF01002CBD010064C10100AF
S31500002430D3BF0100EABF010090D82520C0790081F2
S3150000244080110120602B012017C0010031C001005E
S315000024506AC0010081C001009EC0010084110120F4
S31500002460F4110120791B0000C8C00100E5C001007D
S3150000247004C101002D1D00001CED01009F18000085
S315000024801D93264B0F961C93CDE9105513F012FEA3
S315000024900446014685601AA8FFF70CFEA2681C9B3D
S315000024A029461C922846E268A3601D9B1D9222467F
S315000024B0E360FFF711FE294600F110022846FFF7F8
S315000024C00BFECDE9104010341AA81294FFF78DFACE
S315000024D00FA808F0C1FB0F96DDE91045A5420DD007
S315000024E020461034FFF781FAF8E7002193E60C48FE
S315000024F017F000F8204606F085FC6BE7109808B147
S3150000250013F0C3FD13A80AF0D7FC09A8FFF706FCD1
S3150000251006A8FFF703FC0DF5037DF0BDAD1800001E
S3150000252015C10100184E194D194C83B5FFF7FEFD74
S31500002530376801A83968FFF7E3FAFB681548D7E959
S3150000254001C102465B1A01EB8C0ECCEBA3080B44CF
S315000025509E450BD102EB480200239C450CD951F84D
S3150000256023000133001422F8020BF6E75EF8047B21
S315000025703F1420F8027BEBE701A8FFF7DFFA296892
S315000025802068FFF747FBD3E7F4110120602B0120F9
S3150000259080110120A097002070B58B68164604466E
S315000025A00D1D012253B118691D463268904287BF3E
S315000025B098680122D86800220346F3E792B1CA68F8
S315000025C0AA4203D1C4E90035204670BD284613F05F
S315000025D0DBFD336802699A424FF00003F2D3C4E987
S315000025E00003F1E72846F4E72DE9F04F92464B4AFF
S315000025F08146141D95689046A3462DED028B08EE84
S31500002600101A85B045B12A694A453ABFEA68254697
S31500002610AA682C461546F5E75C4502D02269914525
S3150000262030D2182013F046FD00225C450746426171
S3150000263000F11002C0F810902FD1D8F8141021B173
S31500002640D8F810603169494509D3344902A8FFF723
S31500002650A3FFDDE90246002E5BD0002C57D15E4574
S3150000266055D03869336998422CBF002001202C4B85
S315000026703246394613F08AFDD8F814300133C8F8CB
S3150000268014303C46524618EE101A606905B0BDEC8F
S31500002690028BBDE8F04F08F0CBBE21690192894557
S315000026A019D2D8F80C108C4209D0204613F06CFDD4
S315000026B00169019A494505D2C16851B904462646C1
S315000026C00C46C8E7154902A8FFF766FFDDE90214C4
S315000026D0F5E72146F3E71CD9D8F81060B4420BD0D1
S315000026E0204613F03EFD01690546019A494505D984
S315000026F0E36853B926461D462C46ACE7074902A8AF
S31500002700FFF74AFFDDE90256F6E70646F4E7012041
S31500002710ADE73846274613F0B8FCB2E794380120F7
S315000027209838012010B5044640F6587113F0AFFCF6
S31500002730204610BD08B50F4A4FF4C8600E4B022163
S315000027401A60C3E9010102F5C85102F5CA520B48E5
S31500002750D9601A610A490B4A13F092FC094A0A49E0
S315000027600A4813F08DFC074A09490A48BDE80840A3
S3150000277013F086BC00120120841101208011012073
S31500002780D119000000800020A5190000602B01204F
S31500002790B7190000F4110120EFF305835BB1EFF3E5
S315000027A011834FF0200282F31188BFF36F8FBFF3BE
S315000027B04F8F0360704704F005BAEFF3058313B13A
S315000027C080F31188704704F02BBA4FF47A7358439C
S315000027D000F2E730B0FBF3F006F082B810B504461D
S315000027E030B9084B4FF4B871074A084815F0A2FCF7
S315000027F0FF2004F071FC10B12060002010BD43F2F0
S31500002800DD70FBE70EC201004DC20100B9C1010037
S3150000281008B530B90B4B40F2A1110B4A0B4815F025
S3150000282089FC4B1C00681EBF4FF47A735943B1FBF9
S31500002830F3F104F07FFF002843F2DE7018BF00209A
S3150000284008BD00BF0EC2010061C20100B9C101008E
S3150000285013B530B9154B40F2C311154A154815F09A
S3150000286069FC0068EFF30583B3B1002401A9019464
S3150000287004F016FE01280CD1019840B10E4B4FF022
S3150000288080521A60BFF34F8FBFF36F8F204602B09E
S3150000289010BD43F2DD70FAE71A46194604F050FC03
S315000028A0012843F2DD7008BF0020F0E70EC20100E8
S315000028B073C20100B9C1010004ED00E010B5044681
S315000028C030B9084B40F2ED11074A084815F032FCC2
S315000028D0042004F03BFD10B12060002010BD43F23F
S315000028E0DD70FBE726C2010085C20100B9C1010007
S315000028F008B530B90B4B40F20A210B4A0B4815F0CC
S3150000290019FC4B1C00681EBF4FF47A735943B1FB88
S31500002910F3F104F0FDFF002843F2DE7018BF00203B
S3150000292008BD00BF26C2010095C20100B9C1010061
S3150000293008B530B9074B40F22A21074A074815F077
S31500002940F9FB006804F0D8FC002843F2DD7018BFDC
S31500002950002008BD26C20100A3C20100B9C10100C2
S3150000296013B530B9144B40F24931144A144815F0E6
S31500002970E1FB002400680194EFF305839BB1234635
S3150000298001AA04F0F5FC012812D1019B13B900201D
S3150000299002B010BD0B4B4FF080521A60BFF34F8F41
S315000029A0BFF36F8FF3E71A4604F0CAFB0128EED097
S315000029B043F2DD70ECE700BF3AC20100B3C201008A
S315000029C0B9C1010004ED00E04FF0FF31C06B04F027
S315000029D09FBFC06B04F090BC37B504460191FFF76A
S315000029E0F3FF012813D1019A211D206802F014F982
S315000029F0054628B12046FFF7ECFF284603B030BD58
S31500002A004FF0FF31206C04F095FEA56BF2E74FF412
S31500002A106175F2E70123024A1370024A9360704718
S31500002A206C2B012000000F40FFF7F4BF0B1E10DDDA
S31500002A3000F01F011944BFF34F8F064A0144C2F844
S31500002A405C0220300B1A002BF9DCBFF34F8FBFF36B
S31500002A506F8F704700ED00E00B1E10DD00F01F01C8
S31500002A601944BFF34F8F064A0144C2F8680220306A
S31500002A700B1A002BF9DCBFF34F8FBFF36F8F704734
S31500002A8000ED00E00B1E10DD00F01F011944BFF33E
S31500002A904F8F064A0144C2F8700220300B1A002BF1
S31500002AA0F9DCBFF34F8FBFF36F8F704700ED00E087
S31500002AB03C4A08B5D2F8883043F47003C2F888302F
S31500002AC0394A1388580705D5138823F004031B04D5
S31500002AD01B0C1380354A1388590705D5138823F034
S31500002AE004031B041B0C1380314B1A6892044CD54B
S31500002AF0304A5A604FF6FF729A601A6822F0A002B6
S31500002B0042F020021A602C4B1A68900443D5294AD9
S31500002B105A604FF6FF729A601A6822F0A00242F0DD
S31500002B2020021A60254B1A68D10703D51A6822F0CD
S31500002B3001021A601B4B5A69920315D45A6912F4A2
S31500002B40003211D1BFF34F8FBFF36F8FC3F85022FE
S31500002B50BFF34F8FBFF36F8F5A6942F400325A6149
S31500002B60BFF34F8FBFF36F8F154A136F23F40053D4
S31500002B7013670C4A536943F010035361BFF34F8F39
S31500002B80BFF36F8F00F01EF808BD4CF220525A605A
S31500002B904DF62812ADE74CF220525A604DF6281237
S31500002BA0B6E700BF00ED00E0000003400040034030
S31500002BB00080034020C528D90000C14010E000E095
S31500002BC000400E4008B506F0ADFF08BD10B5EFF3A6
S31500002BD0108472B6438902890BB19A420ED052B95B
S31500002BE001600023013248600B6041600281184693
S31500002BF084F3108810BD43681960F2E743F27A70D7
S31500002C00F6E70068704710B50446C430FFF7F9FFD1
S31500002C1050B1A378012B07D1C268816804F10C007A
S31500002C20BDE8104000F05DB843F2215010BD70477A
S31500002C302DE9F8431E46044600B9FEE701B9FEE752
S31500002C4002B9FEE7856905B9FEE7406A224B98425C
S31500002C50FDD1012E02D1E369002BFCD0EFF31088E1
S31500002C6072B6A3682BB188F3108843F22250BDE8F0
S31500002C70F88305F1C409E260A16023614846267520
S31500002C80FFF7BFFF214607464846FFF79FFF88F339
S31500002C90108847B12EB905F10C06E26823699A42FD
S31500002CA007D80020E3E72846FFF7ADFF0028F1D05C
S31500002CB0DDE7EFF305835BB1EFF3108772B6AB7810
S31500002CC0012B02D1304600F023F887F31088E4E7A1
S31500002CD00120FFF7ACFFE0E75457BBAA0123FFF73B
S31500002CE0A7BF70B500B9FEE701B9FEE702B9FEE776
S31500002CF090F86C604EB90126C0E9171280F86C6036
S31500002D0000F080F80028FDD170BD43F22250FBE7A9
S31500002D1000B9FEE700F0B4B8354B70B553F8204063
S31500002D2034B9344B40F24711334A344815F002FAAD
S31500002D30334B53F82050284602F026F98202064605
S31500002D402BD5284602F00AF9830226D5E36823B379
S31500002D50E1686269531C6361AB69180507D423F403
S31500002D60FD6323F005031B051B0D022B3CD1EB690C
S31500002D7003F07F038B54626923699A420DD34FF0A7
S31500002D800261284602F0CDF80023E360636823B1B0
S31500002D90A26842F6AC712046984732021ED52846F4
S31500002DA002F0DCF8030219D5A369BBB1A269236A54
S31500002DB0591C2162D35CEB61226AE3699A420DD306
S31500002DC04FF40001284602F0ACF80023A3616368C3
S31500002DD023B1A26842F6AB71204698473146284691
S31500002DE0BDE8704002F0DCB8EB69DBB2C2E700BFB9
S31500002DF0702B0120BFC20100F3C30100D2C2010043
S31500002E0038C4010010B530B9164B40F25B31164A92
S31500002E10164815F08FF921B9154B4FF45771124A20
S31500002E20F6E722B9134B40F25D310F4AF0E74378DB
S31500002E30012B04D1104B40F261310B4AE8E784695B
S31500002E4064B9C2610D4B0278046281614FF40001DE
S31500002E5053F8220002F04CF8204610BD42F6A97045
S31500002E60FBE700BF1EC301000BC40100D2C2010074
S31500002E70B3C30100C0C30100CCC3010038C40100C4
S31500002E8008B530B9054B40F2DB31054A054815F067
S31500002E9051F90078BDE80840FFF73EBF1EC30100A8
S31500002EA023C40100D2C20100012008B5FFF734FF98
S31500002EB0BFF34F8F08BD022008B5FFF72DFFBFF304
S31500002EC04F8F08BD032008B5FFF726FFBFF34F8FCE
S31500002ED008BD042008B5FFF71FFFBFF34F8F08BDDD
S31500002EE0052008B5FFF718FFBFF34F8F08BD062072
S31500002EF008B5FFF711FFBFF34F8F08BD072008B5D0
S31500002F00FFF70AFFBFF34F8F08BD082008B5FFF78C
S31500002F1003FFBFF34F8F08BD10B506281FD8DFE8A3
S31500002F2010F0070036007800C00008014C017A0155
S31500002F30D048B1B1D0F8201821F48031C0F820185B
S31500002F40D0F8201821F0FF010A43C0F82028C0F865
S31500002F503038D0F8003583F48033C0F800350020CF
S31500002F6014E0D0F8203843F48033C0F82038D0F885
S31500002F70203823F0FF031A43C0F82028D0F8003584
S31500002F8083F48033C0F80035D0F8400810BDB94846
S31500002F90F9B1D0F85048D0F8501804F4007421F470
S31500002FA08031C0F85018D0F8501821F0FF010A43BC
S31500002FB0C0F85028C0F86038D0F8503883F48073D1
S31500002FC0C0F85038D0F8503803F400739C42F9D05A
S31500002FD0C5E7D0F85018D0F8503801F4007143F422
S31500002FE08033C0F85038D0F8503823F0FF031A4326
S31500002FF0C0F85028D0F8503883F48073C0F85038A1
S31500003000D0F8503803F400739942F9D0D0F870081C
S31500003010BCE7984829B3D0F88048D0F8801804F463
S31500003020007421F48031C0F88018D0F8801821F09F
S31500003030FF010A43C0F88028C0F89038D0F88038DD
S3150000304083F48073C0F88038D0F8803803F40073B6
S315000030509C42F9D0D0F8803823F48033C0F8803809
S315000030607DE7D0F88018D0F8803801F4007143F479
S315000030708033C0F88038D0F8803823F0FF031A4335
S31500003080C0F88028D0F8803883F48073C0F8803880
S31500003090D0F8803803F400739942F9D0D0F8A0082C
S315000030A074E7744829B3D0F8B048D0F8B01804F4DF
S315000030B0007421F48031C0F8B018D0F8B01821F0AF
S315000030C0FF010A43C0F8B028C0F8C038D0F8B038BD
S315000030D083F48073C0F8B038D0F8B03803F40073C6
S315000030E09C42F9D0D0F8B03823F48033C0F8B03819
S315000030F035E7D0F8B018D0F8B03801F4007143F4D1
S315000031008033C0F8B038D0F8B03823F0FF031A4344
S31500003110C0F8B028D0F8B03883F48073C0F8B0385F
S31500003120D0F8B03803F400739942F9D0D0F8D0083B
S315000031302CE7504801B3D0F82049D0F8201904F400
S31500003140007421F48031C0F82019D0F8201921F03C
S31500003150FF010A43C0F82029C0F83039D0F82039D9
S3150000316083F48073C0F820390346D3F8202902F48B
S3150000317000729442F9D0F2E6D0F82019D0F820393E
S3150000318001F4007143F48033C0F82039D0F82039B7
S3150000319023F0FF031A43C0F82029D0F8203983F41E
S315000031A08073C0F820390346D3F8202902F4007250
S315000031B09142F9D0D3F84009E8E62E48A9B1D0F8F3
S315000031C0E01821F48031C0F8E018D0F8E01821F0BA
S315000031D0FF010A43C0F8E028C0F8F038D0F8003400
S315000031E083F40043C0F80034B9E6D0F8E03843F47D
S315000031F08033C0F8E038D0F8E03823F0FF031A43F4
S31500003200C0F8E028D0F8003483F40043C0F8003456
S31500003210D0F81009BAE61748A9B1D0F8E01821F499
S315000032208031C0F8E018D0F8E01821F0FF010A4319
S31500003230C0F8E028C0F8F038D0F8703583F0010304
S31500003240C0F870358BE6D0F8E03843F48033C0F828
S31500003250E038D0F8E03823F0FF031A43C0F8E0283E
S31500003260D0F8703583F00103C0F87035D0F8000946
S315000032708CE600BF0040C84013460A460121FFF70E
S315000032804BBE00230A461946FFF746BE0000000063
S315000032900238002138B5C4B22DED028B2046FFF767
S315000032A0F0FF302105462046FFF7EBFF202108EE10
S315000032B0100A2046FFF7E5FF07EE900AB8EE488BA6
S315000032C005F07F03B8EE675B012006EE103AC5F302
S315000032D0426585EE087B00FA05F5B8EEC66BBDECD7
S315000032E0028B37EE066B9FED087B26EE076B07EE2B
S315000032F0905AB8EEE77B86EE075BFCEEC57B17EED1
S31500003300900A38BDAFF300800000000060E376410C
S31500003310094A46F66063D158C9070BD40121D1503A
S31500003320BFF34F8FBFF36F8F02F5DC427032136825
S31500003330DB07FCD5704700BF0000CC4038B5414BD9
S315000033400446D3F8402212022AD598B1D3F8603247
S31500003350027A1D0400D46AB161683A4B0D88D3F82D
S3150000336060024B88C3F30E0343EA054343EAC233C4
S31500003370834215D1334BD3F84022900405D4D3F8B9
S31500003380402242F40052C3F84022D3F840225100B2
S3150000339005D5D3F8402222F08042C3F8402238BD3A
S315000033A0284D284602F0ECF9D5F87032264A43F04B
S315000033B08033C5F87032D5F84032134207D023F473
S315000033C0000323F4005343F08043C5F840329CB118
S315000033D0237A8BB162687AB123681A4923F0404395
S315000033E01088C1F8A0325388C3F30E0343EA0043A2
S315000033F043F40043C1F86032124C1E20134B1449AB
S31500003400C4F8403200F006FA124B1149FA20C4F80B
S31500003410403200F0FFF9104BC4F840322346D3F88F
S3150000342040229200FBD50D4AC3F8402202F14042E9
S31500003430C3F84022D3F8702202F07F32C3F870221C
S31500003440ADE700BF0040C8400020800008000040F3
S3150000345000CA9A3B08088040080080400820804047
S31500003460232AF7B506D92B4B40F235112A4A2B48A9
S3150000347014F060FE0B2A04D8294B4FF49B71264AA0
S31500003480F5E7022806D0032841D0264B4FF4A27157
S31500003490214AECE7244E254BCC003F271D688020AF
S315000034A0A740D3F800C0A0403D40E540AA4206D15F
S315000034B008250CEA000CCD403CFA05F525D0402540
S315000034C0D3F800C0A240A5400CEA050CCDF804C014
S315000034D0D3F800C040EA0C0CC3F800C0D3F800C013
S315000034E02CEA07071F601F683A431A6002223468F5
S315000034F002FA01F1614031601A6822EA00001860A0
S315000035001A6801992A408A42FAD003B0F0BD084EE3
S31500003510084BC1E72BC5010054C60100DDC40100FC
S3150000352049C5010067C501005042C8407042C84005
S315000035302042C8403042C84008B5831EDBB2012B8A
S3150000354006D9154B4FF4C371144A154814F0F2FD11
S31500003550C9003F230328134A03FA01F30BD0D2F81C
S3150000356070021840104BC8400B2809D80F4B40F288
S315000035709B110A4AE9E7D2F8300218400C4BF2E7F1
S31500003580232804D90B4B4FF4CE71044ADDE7B3FB75
S31500003590F0F01223584308BD6DC5010062C6010054
S315000035A0DDC401000040C84000A4781FA0C501008A
S315000035B000389C1CBFC5010008B5052823D8DFE8E4
S315000035C000F00503292B1C20144808BD144B0220CB
S315000035D0D3F80022D3F80032C3F3C133013300FA23
S315000035E003F31048B0FBF3F0D3B258430028ECD1F4
S315000035F00D4B40F2D1510D4A09E00420FFF748FE79
S31500003600F4E70520FAE70A4B40F2CE51074A09488B
S3150000361014F090FD0848D8E70848D6E700CA9A3B58
S315000036200040C84000366E01DEC5010073C60100C9
S3150000363067C50100DDC4010000A4781F00389C1C8A
S3150000364010B51E2860D8DFE800F010676965696963
S31500003650121216161823252729292B303335373908
S31500003660393B3D444446464848002D4810BD00209D
S31500003670FFF7A2FF05E00220FAE700210220FFF78C
S315000036805BFF0028F2D1274B4FF4C861264A3FE082
S315000036900121F3E70221F1E70321EFE70320E7E742
S315000036A00320FFF789FF4008EBE700210320E6E748
S315000036B00121FBE70221F9E70321F7E70120D7E71C
S315000036C00120EEE70120FFF777FF0523B0FBF3F0BB
S315000036D0D7E70420CCE70520CAE7144C144A236830
S315000036E0C3F30223D05CFFF7ABFF23680246DBB2CD
S315000036F001339A42B0FBF3F0C3D20E4B40F6C5013C
S315000037000D4A0E4814F016FD0D4B40F23D61064A77
S315000037100C48F7E70C48A9E70C48A7E70C48A5E7CB
S315000037200024F400DEC5010084C601000000CC4080
S3150000373092C60100EAC501003DC60100EFC50100C1
S3150000374067C50100DDC401000084D717006CDC02E8
S3150000375000366E010120704708B50846FFF7D8FD10
S31500003760294B4FF0004229499A63294AC3F8A420FD
S31500003770B1FBF0F200FB1210002843D192B21E2AD0
S315000037800FD80C2A0FD90D3A112A3BD8DFE802F0E0
S315000037900E3A312E3A3A3A2B3A283A3A0C3A3A3A13
S315000037A03A34F02A2BD008BD4FF0A070D3F8A01001
S315000037B04FF4803221F0E0710843C3F8A000C3F84B
S315000037C0A8204022C3F8A4204FF080429A6300222A
S315000037D05A600D4AD2F8A030002BFBDA0120E2E74E
S315000037E04FF08070E2E74FF44000DFE74FF400004F
S315000037F0DCE74FF48000D9E74FF0C070D6E74FF012
S31500003800E070D3E70020CEE70040434000389C1C20
S315000038100010200038B5002845D0A0FB0145224AFB
S31500003820002320462946FDF7E9FD0B461F490246BF
S315000038304FF0FF30A94208BFA04205D21C4BC5215C
S315000038401C4A1D4814F076FC1C49C868C50103D4FF
S31500003850C86840F08070C86019490868840103D5BB
S31500003860184B8221184AECE70868C00703D4086899
S3150000387040F0010008604968114C521843F10003FA
S31500003880012B08BF002A08D3013243F1FF33002180
S3150000389060688B4208BF8242F9D300216068994272
S315000038A008BF9042F9D338BD40420F003F420F0097
S315000038B00AC90100C4C901001EC90100F0ED00E0FB
S315000038C0001000E071C90100AEC90100F8B58669B3
S315000038D005460C4606F4C0138661B3F5C01F3AD000
S315000038E0002B38D04B7F06F48016022B21D1087DA1
S315000038F04A7DC3B29042D1B236BF5A1D5A1A521AE5
S31500003900D2B2032A15D83EB3EA6A44F8232001331B
S31500003910276ADBB2052B28BF00232375637F013B93
S31500003920DBB263772FB1636A40F6573221462846E9
S31500003930B847637F012B0ED8237F8BB1A269237F03
S31500003940013BDBB223771368A3613EB1EA62637F72
S315000039500133DBB26377F8BDAA6AD6E7AA62F6E757
S3150000396016B9EB6AAB62F6E7AB6AEB62F3E7000007
S31500003970B0F1814F08B505D0034BB521034A044881
S3150000398014F0D8FB002008BDD7C9010045CA0100C4
S31500003990F9C901000A4947F2A002C0B28B58434058
S315000039A0DB070BD500F001038B50BFF34F8FBFF33E
S315000039B06F8F044A13684340DB07FBD4704700BF90
S315000039C00000CC40B070CC4011F0010F10B508BF1C
S315000039D00023046818BF2023890724F4807248BF97
S315000039E043F0400302601A43026002681A42FCD1A7
S315000039F0046010BD11F0010F0CBF00234FF480438B
S31500003A008A07826848BF43F400531A43826082687B
S31500003A101A42FCD170470000836C23F00043836494
S31500003A20836823F48053836000238360836843F4B0
S31500003A30004310B58360846814F40044FBD103216D
S31500003A40FFF7C2FF0321FFF7D5FF83698361054BAB
S31500003A5003604FF4504344608460836404634463AA
S31500003A6010BD00BF0008004070B504460D4631B9D0
S31500003A70364B40F21911364A364814F05BFB0B8878
S31500003A800E7A5E4373075BD14B89590758D1FFF70E
S31500003A906FFF0120FFF77EFF2046FFF7BDFF6A6834
S31500003AA0AB891343EA7B42BB43F480732360AA7B52
S31500003AB02B7A2ABB022B45D12A8853436A8842EACD
S31500003AC00343720663636B89A3EB06034FEAD303D2
S31500003AD02363A36843F00103A3601FD14FF0404363
S31500003AE06360A36823F0700343F02003204601219E
S31500003AF0A360FFF77FFF002070BD43F08043D3E74C
S31500003B00042B03D1A36C43F00803A364012A03D159
S31500003B10A36843F00803A3600123CDE7B30608D1E9
S31500003B204FF000436360A36823F0700343F0100373
S31500003B30DCE74FF080436360A36823F07003D5E7AA
S31500003B400420D9E7042BE7D1DCE700BF2DC3010031
S31500003B5055CA0100F9C901000B0C02681B04134386
S31500003B600360CBB282688909134301F47F718360D5
S31500003B70836C19438164704710B50C0C02682404E9
S31500003B8022EA0402CCB289090260826801F47F71DC
S31500003B9022EA04028260826C22EA01018164FFF754
S31500003BA0E7FE054B4FF08072C3F88420BFF34F8FBA
S31500003BB0BFF36F8F10BD00BF00E100E0F8B505460A
S31500003BC017461E460C4631B90E4B40F282210E4A6C
S31500003BD00E4814F0AFFA28220021204614F02AFEDF
S31500003BE02846C4E90876FFF7C3FE094B094A43F89D
S31500003BF02040094B1A60094B4FF080725A60002032
S31500003C00F8BD00BF1EC301005ECA0100F9C901006C
S31500003C10A42B0120CD380000A82B012000E100E0F4
S31500003C2038B50C4631B91D4B40F2A9211C4A1D4836
S31500003C3014F080FA0B7F012B2CD9836C23F44023DC
S31500003C4023F0300343F0300383648A690B7F013B22
S31500003C50DBB20B7713688B6182628A690B7F013B4B
S31500003C60DBB20B7713688B610223C2624B770121AB
S31500003C70FFF7C0FE01234FF4C011A377FFF76CFFD7
S31500003C80836843F480538360836C43F0004383640A
S31500003C90002038BD40F65430FBE700BF1EC30100CC
S31500003CA077CA0100F9C9010038B505460C4631B995
S31500003CB0144B40F2DD21144A144814F03BFA836C8D
S31500003CC04FF4C01123F000438364836823F48053C8
S31500003CD08360FFF751FF617F0023C9B2A377637743
S31500003CE0DAB28A4201D3002038BD4AB1EA6AA06935
S31500003CF001331060A261227F0132D2B22277EFE750
S31500003D00AA6AF4E71EC3010089CA0100F9C90100C5
S31500003D1010B5046824F4C01303608B6913608A61CC
S31500003D200B7F0133DBB20B770460002010BD10B5AA
S31500003D304C7D0B7D9C4211D0046824F4C0130360B3
S31500003D404B7D51F8233013604B7D0133DBB2052BDD
S31500003D5028BF00234B750460002010BD40F6553087
S31500003D60FBE70000054A4FF0814008B5044B116897
S31500003D701B689847BFF34F8F08BD00BFA42B0120D7
S31500003D80A82B012040010A4BC9B21A584A40D20753
S31500003D900CD501F001021A50BFF34F8FBFF36F8F9E
S31500003DA0044A024413684B40DB07FBD4704700BF4C
S31500003DB00060CC401060CC4008B5034A3B21034B61
S31500003DC0034814F0B7F900BF0ECB01009ACA0100F0
S31500003DD0BFCA010008B5054B984201D0FFF7ECFFBA
S31500003DE001211620BDE80840FFF7CCBF0040074080
S31500003DF008B5064B984201D0FFF7DEFF6FF00101D0
S31500003E001620BDE80840FFF7BDBF00BF00400740D1
S31500003E1040010A4BC9B21A584A40D2070CD501F0E4
S31500003E2001021A50BFF34F8FBFF36F8F044A02444B
S31500003E3013684B40DB07FBD4704700BF0060CC40E3
S31500003E401060CC4008B5054B984205D0044B4C2178
S31500003E50044A054814F06EF9002008BD000007402A
S31500003E6021CB01002ACE010044CB0100082808B569
S31500003E700BD860B10138072809D8DFE800F0110433
S31500003E8008130808080F012008BD20280CD0074B8E
S31500003E9040F2CD31064A074814F04CF90320F3E707
S31500003EA00020F1E70220EFE70520EDE767C50100F6
S31500003EB010CF010044CB01001F2938B505D9244B8A
S31500003EC05A21244A244814F035F91AB9234B5B21A8
S31500003ED0204AF7E712F01F0403D0214B5C211D4A4C
S31500003EE0F0E700EB4111156841F2040001F580533B
S31500003EF01D6093889BB20B5241F20600D3889BB299
S31500003F000B5241F208039068C85041F20C03D06886
S31500003F10C85041F210031069C85041F21400938A48
S31500003F209BB20B5241F21600D38A9BB20B5241F25E
S31500003F3018039069C85041F21C000C52938B9BB237
S31500003F400B52D38B41F21E029BB28B5238BD00BF7F
S31500003F5091CB01003BCE010044CB0100C5CB010053
S31500003F60D1CB010038B504460D4629B9124B7A214A
S31500003F70124A134814F0DEF8FFF764FF114B0121D3
S31500003F80185CFFF745FF0023A978E3604FF0FF3385
S31500003F906362E362EB7822685B0022F0560243EA32
S31500003FA0810313436A7843EA02132A7843EA8213A9
S31500003FB043F08003236038BDEFCB01004BCE0100F8
S31500003FC044CB010067CF010010B5044628B9084B61
S31500003FD0AE21084A084814F0ADF80422002114F076
S31500003FE029FC00230122A37062702370E37010BDC8
S31500003FF0EFCB010055CE010044CB0100F8B530B936
S31500004000274B4FF4F771274A274814F093F8C40654
S3150000401004D0264B40F2EF11224AF5E721B9244B92
S315000040204FF4F8711F4AEFE7D30604D0214B40F254
S31500004030F1111C4AE8E70C7A4FF0FF350F6805FAD4
S3150000404004F337EA030304D01B4B4FF4F971154A06
S31500004050DAE74B7A4E689D4036EA050504D0174BE1
S3150000406040F2F3110F4ACFE7240203F0070307607B
S3150000407004F4E06406612343C3804B8983808B8903
S3150000408083820B6983608B8AC382C3833AB1826160
S31500004090838B9BB223F0080343F010038383F8BDA0
S315000040A0C5CB01006BCE010044CB0100D1CB010092
S315000040B0EFCB0100FECB010020CC010065CC010056
S315000040C010B530B90E4B40F22B210E4A0E4814F0B3
S315000040D031F8C30604D00D4B4FF40B71094AF5E7CE
S315000040E04B780C789B07826843EAC4734C6808498E
S315000040F0C2F3090201EA84210B431343836010BD16
S31500004100C5CB010085CE010044CB0100D1CB010017
S3150000411000FCFF3F08B530B90A4B40F29F210A4A1E
S315000041200A4814F007F88A0704D5838B9BB243F03C
S31500004130020383834B0704D5838B9BB243F00403AE
S31500004140838308BDC5CB0100A2CE010044CB01008C
S315000041501F2910B506D90D4B40F201310C4A0D4806
S3150000416013F0E8FF00EB411241F21C03D45AC36A74
S31500004170406ACB40C8405B00800003F0020300F0B9
S3150000418004000343C4F3C010184310BD91CB0100D3
S31500004190BBCE010044CB010070B50E461546044661
S315000041A030B9264B4FF45371254A264813F0C2FF07
S315000041B01F2A04D9244B40F24D31214AF5E7182233
S315000041C0002114F037FB3046A6602574FFF73AFE4F
S315000041D006461E48FFF736FEC3B29E4204D21C4B6B
S315000041E040F23A311B4AE0E7F31A1B4A05EB431348
S315000041F005EB461542F82340184B33F91530002BD2
S3150000420008DB0122590903F01F0302FA03F3144ADB
S3150000421042F82130237C0022A1688033580101EB4B
S3150000422043130A509A80DA809A60DA601A619A8299
S31500004230DA829A619A83DA8370BD00BFACCC010042
S31500004240EDCE010044CB010091CB010000000740F8
S31500004250BBCC0100D6CE0100AC2B01206ACF0100F9
S3150000426000E100E008B530B9044B40F2A231044A3F
S31500004270044813F05FFFC0E9001208BDACCC010092
S31500004280FFCE010044CB01002DE9F84F15460E463E
S3150000429099460446DDE90A87DDE90DA230B92F4BC0
S315000042A04FF47C712E4A2F4813F044FF21B92E4B50
S315000042B040F2F1312A4AF6E7B8F1000F04D12B4B50
S315000042C040F2F231264AEEE76B1E1F2B01D82B4235
S315000042D004D0274B40F2F331214AE4E77B1E1F2B23
S315000042E001D83B4204D0234B4FF47D711C4ADAE7D8
S315000042F0B2FBFAFB0AFB1B2222B11F4B40F2F5313F
S31500004300174AD0E7B1FBF5F305FB131323B11B4B9B
S3150000431040F2F631124AC6E7B8FBF7F307FB138300
S3150000432023B1174B40F2F7310D4ABCE718220021A2
S3150000433014F080FA2846C4E90068C4E904ABFFF724
S3150000434095FD20723846FFF791FDBDF93030607259
S31500004350A381A4F80A90BDE8F88F00BFEFCB010057
S315000043602ACF010044CB0100D8CC0100E8CC0100E3
S31500004370F9CC010047CD010099CD0100C2CD010065
S31500004380F5CD010038B530B9164B40F20451164A46
S31500004390164813F0CFFEC1688268037C19B903F092
S315000043A01F03D37638BD803302EB4313427D62F0A0
S315000043B07F0242759A69002AF4D0EFF3108572B62F
S315000043C08468027CE168D140C90707D49B8B03F05F
S315000043D09003802B02D002F01F02E27685F310884C
S315000043E0E0E700BFACCC010045CF010044CB0100A3
S315000043F0027C836802F01F01997603EB421341F2B7
S315000044001C0100225A5241F218015A5041F216017B
S315000044105A5241F21E015A52C3681BB1012343741A
S315000044208274C274704700002DE9F041044630B929
S315000044302D4B4FF4AF612D4A2D4813F07BFE037CC4
S3150000444041F21C078168CB7701EB4311C368CA5B55
S31500004450056802F08006C2F3C01233B9002D2DD0D4
S31500004460AC464168BDE8F041604741F21800085883
S31500004470CF5BC11ABFB24B0916B3DBB2617C58B22F
S315000044808B4226D1E37C217D994201D0FF0628D4B8
S31500004490E37C5BB26074E17CC91A49B2E17415B180
S315000044A061682046A8474EB1A36841F21C01227CF0
S315000044B003EB4210415AC90600D51A77BDE8F081D0
S315000044C01F2901D9013BD8E7237D013B03F0FF03F8
S315000044D0D4E7617C49B25B1ADCD5217D43FA81F3CE
S315000044E0D8E70023D6E700BFACCC010058CF0100C7
S315000044F044CB010000210B4808B5FFF729FE42070F
S3150000450003D5094B1868FFF78FFF10210548FFF701
S315000045101FFE430703D5044B186CFFF785FFBFF357
S315000045204F8F08BD00000740AC2B012001210B482E
S3150000453008B5FFF70DFE420703D5094B5868FFF78C
S3150000454073FF11210548FFF703FE430703D5044B0C
S31500004550586CFFF769FFBFF34F8F08BD0000074097
S31500004560AC2B012002210B4808B5FFF7F1FD4207ED
S3150000457003D5094B9868FFF757FF12210548FFF747
S31500004580E7FD430703D5044B986CFFF74DFFBFF3D8
S315000045904F8F08BD00000740AC2B012003210B48BC
S315000045A008B5FFF7D5FD420703D5094BD868FFF7D5
S315000045B03BFF13210548FFF7CBFD430703D5044B0B
S315000045C0D86CFFF731FFBFF34F8F08BD00000740DF
S315000045D0AC2B012004210B4808B5FFF7B9FD4207B3
S315000045E003D5094B1869FFF71FFF14210548FFF78C
S315000045F0AFFD430703D5044B186DFFF715FFBFF357
S315000046004F8F08BD00000740AC2B012005210B4849
S3150000461008B5FFF79DFD420703D5094B5869FFF71B
S3150000462003FF15210548FFF793FD430703D5044B08
S31500004630586DFFF7F9FEBFF34F8F08BD0000074026
S31500004640AC2B012006210B4808B5FFF781FD420778
S3150000465003D5094B9869FFF7E7FE16210548FFF7D2
S3150000466077FD430703D5044B986DFFF7DDFEBFF3D7
S315000046704F8F08BD00000740AC2B012007210B48D7
S3150000468008B5FFF765FD420703D5094BD869FFF763
S31500004690CBFE17210548FFF75BFD430703D5044B07
S315000046A0D86DFFF7C1FEBFF34F8F08BD000007406E
S315000046B0AC2B012008210B4808B5FFF749FD42073E
S315000046C003D5094B186AFFF7AFFE18210548FFF717
S315000046D03FFD430703D5044B186EFFF7A5FEBFF356
S315000046E04F8F08BD00000740AC2B012009210B4865
S315000046F008B5FFF72DFD420703D5094B586AFFF7AA
S3150000470093FE19210548FFF723FD430703D5044B04
S31500004710586EFFF789FEBFF34F8F08BD00000740B4
S31500004720AC2B01200A210B4808B5FFF711FD420703
S3150000473003D5094B986AFFF777FE1A210548FFF75C
S3150000474007FD430703D5044B986EFFF76DFEBFF3D5
S315000047504F8F08BD00000740AC2B01200B210B48F2
S3150000476008B5FFF7F5FC420703D5094BD86AFFF7F2
S315000047705BFE1B210548FFF7EBFC430703D5044B03
S31500004780D86EFFF751FEBFF34F8F08BD00000740FC
S31500004790AC2B01200C210B4808B5FFF7D9FC4207CA
S315000047A003D5094B186BFFF73FFE1C210548FFF7A1
S315000047B0CFFC430703D5044B186FFFF735FEBFF355
S315000047C04F8F08BD00000740AC2B01200D210B4880
S315000047D008B5FFF7BDFC420703D5094B586BFFF739
S315000047E023FE1D210548FFF7B3FC430703D5044B01
S315000047F0586FFFF719FEBFF34F8F08BD0000074043
S31500004800AC2B01200E210B4808B5FFF7A1FC42078F
S3150000481003D5094B986BFFF707FE1E210548FFF7E6
S3150000482097FC430703D5044B986FFFF7FDFDBFF3D5
S315000048304F8F08BD00000740AC2B01200F210B480D
S3150000484008B5FFF785FC420703D5094BD86BFFF780
S31500004850EBFD1F210548FFF77BFC430703D5044BFF
S31500004860D86FFFF7E1FDBFF34F8F08BD000007408B
S31500004870AC2B012008B5084B984209D0A3F580431C
S31500004880984207D0054BB821054A064813F052FC5A
S31500004890002008BD0120FCE70040424003D0010093
S315000048A026D00100B6CF010070B505464668FFF771
S315000048B0E1FF0446AB681E4016F0406F09D0134B6B
S315000048C053F820302BB11249002251F82010284607
S315000048D0984716F0407F09D00E4B53F824302BB181
S315000048E00B490022284651F8241098470A4B1E42CD
S315000048F00AD00A4B53F8243033B1054A284652F8F9
S315000049002410BDE87040184770BD00BF442C01203C
S315000049102C2C01203C2C012000007C60342C012032
S3150000492070B504464668FFF7A5FF0546A3681E4016
S3150000493016F00C0F09D00C4B53F820302BB10B4955
S31500004940012251F8201020469847B3070BD0084B98
S3150000495053F825303BB105492046012251F8251070
S31500004960BDE87040184770BD442C01202C2C012056
S315000049703C2C012070B504464668FFF77BFF0546D0
S31500004980A3681E4016F0C00F09D00D4B53F8203017
S315000049902BB10C49022251F820102046984716F0F8
S315000049A0300F0BD0084B53F825303BB10549204654
S315000049B0022251F82510BDE87040184770BD00BFAF
S315000049C0442C01202C2C01203C2C0120FFF752BF47
S315000049D0034808B5FFF768FFBFF34F8F08BD00BF58
S315000049E000404240034808B5FFF7F0FFBFF34F8F82
S315000049F008BD00BF00404240034808B5FFF754FF1A
S31500004A00BFF34F8F08BD00BF00004240034808B502
S31500004A10FFF786FFBFF34F8F08BD00BF000042407F
S31500004A20034808B5FFF7A6FFBFF34F8F08BD00BFC9
S31500004A3000004240034808B5FFF7C8FFBFF34F8F99
S31500004A4008BD00BF00004240044A0548516808B549
S31500004A50044B1B689847BFF34F8F08BD4C2C0120B1
S31500004A6000C00C40582C01201F2908B505D9084B59
S31500004A707121084A084813F05DFB012303FA01F18E
S31500004A8012B9C0F8881008BDC0F88410FBE700BF53
S31500004A9037D00100C2D0010041D0010010B5012479
S31500004AA0C3690F2902F1FF3204FA01F488BF1039F5
S31500004AB023EA0403C36194BF00F10C0300F1100361
S31500004AC0042A0BD8DFE802F0030B151D240048006A
S31500004AD003211A68814022EA0101196010BD4C00C9
S31500004AE003201A680121A04022EA0002A1401143D6
S31500004AF0F3E74C0003201A680221A04022EA0002D4
S31500004B00F4E749000322186802FA01F10143E4E7D9
S31500004B10C3691C43C461E1E773B500231646044626
S31500004B20204A52F8040B844212D00133102BF8D1DC
S31500004B301D4B39211D4A1E4813F0FCFA7278204697
S31500004B400191FFF791FF636801991D43656022E0BB
S31500004B500D2B13D8174AD35C8A2B0FD05B01164A4C
S31500004B60D058C0070AD40120D050BFF34F8FBFF3EF
S31500004B706F8F10321A441368DB07FCD50125626972
S31500004B808D4022EA0502EB4362613278002AD5D1D4
S31500004B90626813406360B278204602B0BDE8704098
S31500004BA0FFF77CBFD0D001008ED00100B1D001004C
S31500004BB041D0010010D101000060CC4038B5036936
S31500004BC004460D46DA0706D50A4B1B681BB10A4A8E
S31500004BD052F821109847D4F81031DB0707D5074B58
S31500004BE01B6823B1064A204652F825109847BFF3A2
S31500004BF04F8F38BD782C01205C2C0120982C012089
S31500004C007C2C0120436903F04073B3F1007F0CBF95
S31500004C104FF46170002070472DE9F04106460C46BE
S31500004C2031B9464B40F25151454A464813F082FA93
S31500004C3022B9454B40F25251414AF6E7D368042B5C
S31500004C4004D9424B40F253513D4AEEE79379012B8A
S31500004C5003D15369B3F5806F6AD894F80080B8F130
S31500004C60000F68D13046FFF7CDFF844600282CD1CF
S31500004C70B369154604F1140723F4785323F00303AC
S31500004C80B361336943F4407333610FCD0FC7636972
S31500004C9095E80300DB0787E8030019D5A37E012BFF
S31500004CA00CBF022303232370636A6360A36A6380D5
S31500004CB04FF4FE437361736A23F480737362B369BE
S31500004CC043F4785343F00303B3616046BDE8F081D3
S31500004CD0236A04F108000BB994F81A80228B48EA7B
S31500004CE0420242F48062228103B307461946013923
S31500004CF015D20133A26A6AB1A27E012A0AD1B8F19D
S31500004D00000F07D1218B40F2014242EA410220F80E
S31500004D10132001330122638060602270C8E7E269D4
S31500004D20CD00EA40D2B227F8022FE0E70123E1E7FF
S31500004D304FF0040CC9E74FF4617CC6E71EC30100BF
S31500004D40CAD1010032D1010080D1010091D1010008
S31500004D5001210148FFF732BF0040104002210148FF
S31500004D60FFF72CBF0080104003210148FFF726BF44
S31500004D7000C0104004210148FFF720BF0000114089
S31500004D8005210148FFF71ABF0040C340062101482C
S31500004D90FFF714BF0080C34008B5436ADB074CBF6A
S31500004DA0034B044B1B689847BFF34F8F08BD00BFEA
S31500004DB0B82C0120BC2C012008B5074B596831B925
S31500004DC0064B40F69D01064A064813F0B3F906481D
S31500004DD0BDE80840FFF7E0BF9C2C012047D2010048
S31500004DE0DDD20100F9D101000040114008B5074BA2
S31500004DF0996831B9064B40F6A601064A064813F0F3
S31500004E0099F90648BDE80840FFF7C6BF9C2C01206B
S31500004E1060D20100F5D20100F9D1010000801140F5
S31500004E2008B5074BD96831B9064B40F6AF01064ABB
S31500004E30064813F07FF90648BDE80840FFF7ACBF07
S31500004E409C2C012079D201000DD30100F9D101007B
S31500004E5000C0114008B5074B196931B9064B40F639
S31500004E60B801064A064813F065F90648BDE8084049
S31500004E70FFF792BF9C2C012092D2010025D301009E
S31500004E80F9D101000000124008B5074B596931B944
S31500004E90064B40F6C101064A064813F04BF9064890
S31500004EA0BDE80840FFF778BF9C2C0120ABD201007B
S31500004EB03DD30100F9D1010000C0C24008B5074B3F
S31500004EC0996931B9064B40F6CA01064A064813F0FD
S31500004ED031F90648BDE80840FFF75EBF9C2C01206B
S31500004EE0C4D2010055D30100F9D101000000C3402E
S31500004EF00B02026903F44043134301F4407221F0AC
S31500004F0070410361836A21F4732123F4403321F451
S31500004F107F61134321F00F01836283691943816125
S31500004F2070470A02036902F4404223EA020301F4CD
S31500004F30407221F070410361836A21F4732123EAF0
S31500004F40020321F47F6123F4403321F00F018362D1
S31500004F50836923EA01018161704700008169026962
S31500004F60084B120A0B4002F040021A430369806A9A
S31500004F701B0A00F4407003F08003134323F44073CC
S31500004F801843704700C3F00F4269836A03481B0C3D
S31500004F9003F0C30313431840704700BFC3C0FFC1EB
S31500004FA010B58B070C4C04EA010407D0826A23046F
S31500004FB022F4703203F4403313438362436903F0EF
S31500004FC0785323434361FFF7DFFF204240F21A5034
S31500004FD008BF002010BD00BF03C01FC0044A05481B
S31500004FE0516808B5044B1B689847BFF34F8F08BD3F
S31500004FF0C02C012000C00740F42C0120044A0548BB
S31500005000916808B5044B1B689847BFF34F8F08BDDE
S31500005010C02C012000000840F42C0120044A054859
S31500005020D16808B5044B1B689847BFF34F8F08BD7E
S31500005030C02C012000400840F42C0120044A0548F9
S31500005040116908B5044B1B689847BFF34F8F08BD1D
S31500005050C02C012000800840F42C0120044A054899
S31500005060516908B5044B1B689847BFF34F8F08BDBD
S31500005070C02C012000C00840F42C0120044A054839
S31500005080916908B5044B1B689847BFF34F8F08BD5D
S31500005090C02C012000000940F42C0120044A0548D8
S315000050A0D16908B5044B1B689847BFF34F8F08BDFD
S315000050B0C02C012000400940F42C0120044A054878
S315000050C0116A08B5044B1B689847BFF34F8F08BD9C
S315000050D0C02C012000800940F42C0120044A054818
S315000050E0516A08B5044B1B689847BFF34F8F08BD3C
S315000050F0C02C012000C00940F42C0120044A0548B8
S31500005100916A08B5044B1B689847BFF34F8F08BDDB
S31500005110C02C012000000A40F42C0120044A054856
S31500005120D16A08B5044B1B689847BFF34F8F08BD7B
S31500005130C02C01200040C240F42C0120044A05483E
S31500005140116B08B5044B1B689847BFF34F8F08BD1A
S31500005150C02C01200080C240F42C012008B5034A6F
S315000051602A21034B034812F0E5FF00BF05D40100D6
S315000051706DD30100A3D30100094AC0B213684340AE
S31500005180D9070BD500F001031360BFF34F8FBFF3B0
S315000051906F8F103213684340DB07FBD4704700BFA4
S315000051A08062CC4008B5054B984201D0FFF7D6FF88
S315000051B00120BDE80840FFF7DFBF00BF0080C44004
S315000051C0032910B505D9074B5621074A074812F09F
S315000051D0B1FF4FF40003CB40046A1C42FCD040F8F8
S315000051E0212010BDEED3010014D40100A3D3010089
S315000051F00C4946F62072C0B28B584340DB070FD5E8
S3150000520000F001038B50BFF34F8FBFF36F8F02F196
S31500005210814202F59802103213684340DB07FBD443
S31500005220704700BF0000CC4008B5054B984205D03A
S31500005230044B4921044A054812F07CFF002008BDB2
S315000052400000C2401FD4010009D5010041D401006D
S3150000525038B543684468C3F303430568C4F342643E
S31500005260C3F11003072C2DD8DFE804F024042C2CFE
S315000052702A2724275A43D200B1FBF2F1FF2927D867
S315000052800022EDB2144635FA04FC04F1010418BFFD
S315000052900132082CF7D17D24DB0054430A34B4FBD9
S315000052A0F3F3994214D3426822F0FF020A434260A4
S315000052B0002038BD5A439200DEE75A435200DBE72E
S315000052C05A43D9E7034BDB21034A044812F032FF65
S315000052D00120EEE767C5010019D5010041D40100A0
S315000052E038B504460D4631B91D4B40F22D111D4A05
S315000052F01D4812F01FFF4B78072B04D91B4B4FF4A8
S315000053009771184AF4E7FFF78FFF0120FFF770FF48
S315000053102268174B13402360A368002BFCDB23682D
S315000053202A7843F000632360236823F0804343EA2E
S3150000533082732360EB78A97862681B04490603F43C
S31500005340702322F0606201F0606122F470220B4348
S31500005350134363606B7803F00703236138BD00BF16
S31500005360EFCB010031D5010041D401008DD40100FD
S3150000537000FF7F5F026822F0005208B50260FFF767
S3150000538053FF6FF00100BDE80840FFF731BF8A0107
S3150000539005D5036823F0407343F0007303600B02E6
S315000053A003D5036843F400030360704770B532B950
S315000053B0144B4FF4C171144A144812F0BBFE08296D
S315000053C004D9134B40F283110F4AF5E74E0003242C
S315000053D0436FB440456E25EA04051478B4402C4367
S315000053E08D0044660F24AC4023EA04045378AB4096
S315000053F0234343670123026803FA01F11143016065
S3150000540070BD00BFEFCB01003AD5010041D40100C9
S31500005410C1D4010008B5084B196831B9074B40F2F1
S315000054204E31074A074812F085FE074B07481B68AE
S315000054309847BFF34F8F08BDF82C0120F2D4010026
S315000054404FD5010041D40100FC2C01200000C240D0
S31500005450F8B54C680D460646217D71B9E3692022F0
S31500005460A06A03EB401013F0E5F9A36A216A013341
S31500005470B3FBF1F201FB1233A362A36AE269276967
S3150000548002EB4312D38B99B29368A268C3F3090364
S3150000549001FB0323A3602FB1A36941F624422146F1
S315000054A02868B847E36A013BE362E36A5BB9237D98
S315000054B04BB92A683046136823F040731360FEF731
S315000054C097FF0123E360F8BD2DE9F843089E0746E0
S315000054D0914698460C4601B12EB9104B6B21104AE5
S315000054E0104812F027FEFFF79FFE342205460021E2
S315000054F0204613F09FF90C4A2660012342F83570C6
S3150000550002EBC5023046C4F81090C4F81880E36078
S3150000551054600649BDE8F843FEF7A4BE6AD501000B
S315000055205BD6010092D50100002D012051540000E8
S3150000553008B528B9044B8A21044A054812F0FAFD39
S31500005540C0E9071208BD00BFACCC010078D6010047
S3150000555092D5010070B5154606461A460C4601B1AD
S315000055602BB90D4B9D210D4A0D4812F0E3FD072D79
S3150000557003D90C4B9E21094AF6E72946FFF716FF89
S3150000558094F8313084F83050013384F8313033697F
S3150000559003F00703237170BDE3D5010099D601001E
S315000055A092D5010008D601002DE9F04F07468FB0CD
S315000055B091460C4601B12AB94F4BDB214F4A504860
S315000055C012F0B8FD1822002108A813F033F90123C0
S315000055D094F83120ADF81830C2F5802394F8306085
S315000055E0D4F824809B000793D9F80030002B7ED096
S315000055F0D9F80430002B7AD00A364D464FF0040A0B
S31500005600B61A07EB8606E26A236A9A4271D2EFF36C
S31500005610108272B6E36A0133E36282F31088636A2A
S31500005620226A0133B3FBF2FB02FB1B3B94F83130D9
S31500005630012B4DD16B68042204932379CDF804A085
S315000056409B00CDE902A32B6800930023314608A8EE
S31500005650FEF71AFEE369606A08A903EB4B1203EB37
S315000056604010FEF7CBFC94F83130012B06D9606A66
S3150000567006A9E36903EB4010FEF722FD606A0221EA
S31500005680E36903EB4010FEF745FDAD68C4F824B0AE
S31500005690A94529D101232375E068B0B12368E269E1
S315000056A09868197C02EB4812FEF706FC2068FEF7A4
S315000056B069FE3B68002023F0407343F080733B6033
S315000056C03B6843F000533B60E0600FB0BDE8F08FED
S315000056D06A689B00CDF804A00492CDE902A32B686A
S315000056E0009304231A46B1E7002D8CD1D4E7042099
S315000056F0EBE741F62340E8E738D60100BAD60100C9
S3150000570092D5010038B505460C4631B90B4B40F22F
S315000057103B110B4A0B4812F00DFD0868FEF768FEB8
S315000057202B6823F040732B602B6823F000532B600B
S31500005730E36A013BE3620123E36038BDACCC0100C0
S31500005740D2D6010092D5010010B50C4631B9094BED
S315000057504FF4AC71084A094812F0ECFCFFF7D2FF8F
S31500005760226A0021E069520113F064F800236362A3
S31500005770E36210BDACCC0100EFD6010092D501006A
S31500005780002110B504460846FDF77BFD40F20512E0
S3150000579090420DD000210846FDF76EFD0549012017
S315000057A0FEF738F8D4F8703543F01003C4F87035B6
S315000057B010BD00BF00CA9A3B40010A4BC9B21A5835
S315000057C04A40D2070CD501F001021A50BFF34F8FA1
S315000057D0BFF36F8F044A024413684B40DB07FBD4C8
S315000057E0704700BF0060CC401060CC4008B5034A4B
S315000057F04B21034B034812F09DFC00BFABD70100C1
S3150000580010D7010032D70100F8B506460F461446F8
S315000058102AB95C4B5D215C4A5C4812F08BFCD3785C
S31500005820022B02D1002900F0AA80E079012802D1DA
S31500005830002F00F0A58086B1554B9E4261D003F53E
S3150000584080439E425FD003F580439E425DD003F5C0
S3150000585080439E425BD0FFF7C9FF33464D4A012184
S31500005860602502EB830305FB0765D85DFFF7A4FF00
S31500005870B6F88E3120789BB243F00F03A6F88E312E
S31500005880E378A98803F00303627A01F4E65143EA58
S31500005890C03360790B436178012843EA81334FEACC
S315000058A0C20101F0380143EA0103A1784FEA012160
S315000058B001F4407143EA0103E1794FEA81019BB2A9
S315000058C001F0040143EA010323D002282CD000286A
S315000058D035D143F40053AB80EB88217A23F074036F
S315000058E01B051B0D43EA0133217909019BB201F027
S315000058F070010B43A17903293DD8DFE801F0242F7D
S3150000590034390123AAE70223A8E70323A6E70423E1
S31500005910A4E7B6F888C10C371FFA8CFCB8402CEA0D
S315000059200000A6F88801D6E70C370121B6F88801F1
S3150000593001FA07F70743BFB2A6F88871CBE7164B03
S315000059408D21114A68E743F00403EB8022B9AB8846
S315000059509BB243F04003AB80002011E023F4806348
S3150000596043F40063F1E723F4006343F48063ECE758
S3150000597043F44063E9E7084BAB21034A4CE70120B7
S31500005980F8BD00BF35C30100BBD7010032D7010007
S3150000599000C01840E6D7010067C5010010B50446EF
S315000059A028B90B4BDE210B4A0B4812F0C3FB0A2227
S315000059B0002112F03FFF002323706370E371E37050
S315000059C02371A37063722372A371637110BD00BF4C
S315000059D035C30100C4D7010032D701002DE9F04FCD
S315000059E087B004919DF840100591DDE9114132B967
S315000059F08A4B4FF48B718A4A8A4812F09BFB24B972
S31500005A00894B40F21711864AF6E723B9874B4FF4C4
S31500005A108C71834AF0E721B9854B40F21911804A0F
S31500005A20EAE7022B00F2F7806027049D083207FBA5
S31500005A300507FE88C6F3021621FA06F6B6FBF4F64B
S31500005A40C6F34E0C00241FFA86F8013ECCF1000185
S31500005A50A646A146B6B289B203910CF1FF3189B2CE
S31500005A600291394612F8075C4FF0640A08FB05F507
S31500005A70B5FBFAF50195059DBDF804A0032D00F2CE
S31500005A808F80DFE805F00210697A2CB9039DE6469F
S31500005A907D80029D4C81CD814FEA5A05C5F1000AF1
S31500005AA01FFA8AFA0CE01CB97C80A1F80AC0CE81E4
S31500005AB0BDF80450A8EB050A4544CAF34F0A6D0821
S31500005AC012F808BCBBF1010F53D1A1F812A0CD8288
S31500005AD012F8085C32F804AC012D66D1A1F830A0AA
S31500005AE04FF00A0B4D8C25F030052D042D0C4D84FE
S31500005AF012F8025CB1F822A02D011FFA8AFA05F00D
S31500005B00300545EA0A054FF0080A4D84012505FAD5
S31500005B100BF512F806BC2DB2BBF1000F75D1B1F82A
S31500005B2022B01FFA8BFB2BEA05054D840832049D33
S31500005B30B0F880B1AA44012505FA0AFA2C444AEACB
S31500005B400B0AE4B21FFA8AFAA342A0F880A189D10F
S31500005B50002007B0BDE8F08F2CB9039DE6467D8096
S31500005B60029D4C81CD81AAEB0E05CEF1000AADB2A5
S31500005B7096E7A1F81AA0CD83AAE71CB97C80A1F804
S31500005B800AC0CE8112F8085C012D04D1A1F812904A
S31500005B90A1F816A09CE7A1F81A90A1F81EA097E715
S31500005BA0244B4FF4CD711E4A26E7022DA1F832A0F0
S31500005BB017D025D84D8C25F00C052D042D0C4D84C1
S31500005BC012F8025CB1F822A0AD001FFA8AFA05F0BD
S31500005BD00C0545EA0A054FF0090B4FF0040A4D84FF
S31500005BE094E74D8C25F003052D042D0C4D84B1F85A
S31500005BF022A012F8025C1FFA8AFA05F00305E8E70C
S31500005C000C4B4FF4E071064AF6E6B1F822B045EACD
S31500005C100B05ADB289E701209BE700BF7ED70100E7
S31500005C20D9D7010032D7010089D7010094D70100E6
S31500005C309FD7010067C50100054B064AD3F8003817
S31500005C40DB064CBF044B054B1B681360704700BF57
S31500005C500040C840082D01201C0021001C00200027
S31500005C60014B1B681B681847082D01208268836852
S31500005C7023F0010383608368D907FCD48368D207C5
S31500005C8043F48033836006D5836843F00103836061
S31500005C908368DB07FCD570477FB5034628B9254BDB
S31500005CA05F21254A254812F045FA254A6C4602F13D
S31500005CB008061068083252F8041C2546B24203C58D
S31500005CC02C46F6D11068127928602A711A88A2F239
S31500005CD0B271812928D89878411E0B2924D81979C0
S31500005CE0172921D859793B291ED899793B291BD8E0
S31500005CF0910706D16424B2FBF4F104FB112189B2A9
S31500005D0039B94FF4C874B2FBF4F104FB112292B214
